:020000040000FA
:02000000622874
:040002000034003492
:080008008B1A2B2881018B16D5
:100010000B1A8B1C11288B10050807390F1B25297B
:100020003E298B100B1C090006080B1030390319F0
:10003000090032308D003622061A2128861A272818
:1000400009000F13851D090085110F1709000F1BEB
:100050005B298F1109000B1D09008B120B11090080
:10006000820750344934433420344234723461348A
:1000700069346E346634753463346B34003482070B
:1000800045344534503452344F344D3420344334A5
:100090006C346534613472346534643400348207FE
:1000A0009129A5299329A1298A299B298329952961
:1000B000D6298207203404341034083480340134C3
:1000C0004034023483163130860007308500D73043
:1000D0008100831286018501031132308D003622A2
:1000E00018223E229001061A45228F130C308E00F2
:1000F000E9218F17100830200038031986288E0058
:10010000E921900A1F308D0036227528FF308D00BE
:100110003622FF308D0036228F130F308E00E921FA
:100120008F1785118B139001890118220310100C71
:100130008900831608148312101C880E8819B128B0
:10014000080807398E00D921900A1008103C1F3981
:10015000031930221008203C1F39031D962818224D
:1001600096280F1789010B168B158B170F1BB628B6
:100170008B1308080F39083C0319C02808300121E7
:1001800018228F120F128F119001113084008001FC
:10019000840A0408503C031DC728113084008901DB
:1001A0008C010310100C8900831608148312101C94
:1001B000880E08080F390F1E8F1AE3284F20900A67
:1001C0000F1BFD28D1288E008F1A073C0F1A053C03
:1001D00003198C0A0E088F1A053C0F1A073C031DE1
:1001E000F8288C0BF8288F1A900A8F120F12D1283A
:1001F0008F1A900A0F1A9003D1288B17851D91280A
:10020000FD288E000310100C890083160814831239
:1002100010180F290E0E0806F039880613290E084B
:1002200008060F398806831608150B088E008B13F5
:1002300055308900AA308900881488181D290811B2
:100240008E1B8B17081483120800851909000121E1
:100250000808101C080E07398E00D921900A1008D2
:10026000103C1F39031930221008203C1F39031D90
:100270000900C8308D003622182209005920800656
:10028000000E0F39063E8318073E2A3E8E00E921F4
:100290008F1304308E00E9218F1700080F39063EB6
:1002A0008318073E2A3E8E00E9218F1306308E0008
:1002B000E9218F1709008519090090080319090021
:1002C000900308300121100A103C1F39031D6D29CD
:1002D0008F1390308E00E9218F178F1310308E000E
:1002E000E9218F1720308E00E9218F1310308E0006
:1002F000E9218F17100A203C1F39031D090018221D
:10030000203090029628840A5030040211300318DD
:10031000840008008403113004024F30031C840061
:100320000800800A0800800308000008031D080078
:100330008F16900308000008031908000F16900399
:10034000080000088E00E92108008B1780018F1338
:100350000C308E00E9218F1730308E00E9218F1389
:1003600004308E00E9218F1730308E00E9218F1381
:1003700006308E00E9218F178F158F19BD298B1339
:1003800020308E00E9218F1304308E00E9218F1771
:1003900020308E00E9218F1306308E00E9218F175F
:1003A0008F130F308E00E9218F1708000F17851566
:1003B00008000E080E19E029033E28388E00E729B0
:1003C0003C380E18603A8E005F3C03190E11E9218B
:1003D0000800FE2106150E220922FE2106110E221A
:1003E00002308D003622FE2106150E220922FE2142
:1003F00006110E2202308D003622080004308C00D7
:100400008E0D061103180615861586118C0B002A11
:1004100008008E0C8E0C8E0C8E0C08008615861132
:1004200006118F1B06158615861186148610080086
:100430008F1333308E00E92130308E00E9210230F5
:100440008E00E92128308E00E9210F308E00E9214D
:1004500001308E00E92106308E00E9218F17080057
:100460008F13A8308E00E9218F170800C8308C0048
:10047000392A8C0B382A8D0B372A080009308C005A
:10048000412A8C0B402A0000080090010830851595
:100490000121182210083F200038031986288E00F9
:1004A000E921900A4A2A9001FF308D0036228511F9
:0204B000080042
:02400E00F23F7F
:1042000000000000000000007600000000007600C2
:1042100000006000000060000000600044004400F6
:104220002500600060006200660007004500420053
:104230005600630062002200300000000000000011
:104240003300000003006600340023004300000038
:10425000030022002200220032002200220022005D
:0842600023006600030080004A
:00000001FF
