:020000040000FA
:02000000402896
:040002000034003492
:080008008B1C0C288B1005086D
:1000100007390F1BBB28EB280B1C090006080B1027
:10002000061E18280F13851D090085110F170900DA
:10003000861A0F1E09000F1F0F1209008207503485
:1000400049344334203442347234613469346E3478
:100050006634753463346B34003482077629A12901
:1000600078299D296F298C2968297A29C229820734
:1000700020340434103408348034013440340234E1
:100080008316F130860007308500831286018501D2
:100090000311061AD42132308D00C5214A21CD2109
:1000A000900110081E20003803195D288E001821C9
:1000B000900A1F308D00C5215128FF308D00C521C9
:1000C000FF308D00C5218511900189014A2103105F
:1000D000100C8900831608148312101C880E08085F
:1000E0000F39083C03198528080807398E000821B4
:1000F000900A1008103C1F39031962211008203C97
:100100001F39031D67284A2167280F1789010B161D
:100110008B158B170F1B8A280830BB209228851D52
:1001200063288F284A218F120F120B1290010F089B
:10013000F0398F00193084008001840A0408503C93
:10014000031D9C281930840089010310100C8900BC
:100150008316081483120808101C080E0F398F1A12
:10016000B6282D20900A0F1B8F28A528053C0319BF
:100170008F12900AA5288E000310100C8900831698
:10018000081483121018C9280E0E0806F0398806C4
:10019000CD280E0808060F398806831608158B131C
:1001A00055308900AA30890088148B1708148312EF
:1001B0000808101C080E07398E000821900A100844
:1001C000103C1F39031962211008203C1F39031D00
:1001D00009004A21090037208006000E0F39063E2B
:1001E0008318073E2A3E8E0018218F1304308E009C
:1001F00018218F1700080F39063E8318073E2A3E44
:100200008E0018218F1306308E0018218F170900D9
:100210000E080E190F29033E28388E0016293C3887
:100220000E18603A8E005F3C03190E111821080069
:100230002F21061540213A212F210611402102309D
:100240008D00C5212F21061540213A212F210611AD
:10025000402102308D00C5213A213A2108000430A6
:100260008C008E0D061103180615861586118C0B51
:100270003129080004308C008E0C8C0B3C290800BE
:100280008615861106118F1B061586158611861494
:10029000861008008F1333308E00182130308E0006
:1002A000182102308E00182128308E0018210F30BE
:1002B0008E00182101308E00182106308E00182182
:1002C0008F1708008F13A8308E0018218F17080091
:1002D000840A503004021930031884000800840393
:1002E000193004024F30031C84000800800A080003
:1002F00080030800000803198A2904088E000F08EB
:100300000739113E8400100880008F0A8F110E08F3
:10031000840008008F160800000803199A290408B1
:100320008E000F080739103E8400000890000E0868
:10033000840008008F038F11080000088E00182128
:1003400008000B1680018F130D308E0018218F17B7
:1003500030308E0018218F1304308E0018218F1733
:1003600030308E0018218F1306308E0018218F1721
:100370000F160F1AB9290B128F130F308E00182188
:100380008F1708000F1785150800C8308C00C82982
:100390008C0BC7298D0BC629080009308C00D02989
:1003A0008C0BCF2900000800900108308515BB2078
:0A03B000FF308D00C5218511080003
:02400E00F23F7F
:0C4200000700610031003300340058005A
:00000001FF
