:020000040000FA
:020000002928AD
:040002000034003492
:080008008B1C0C288B1005086D
:1000100007390F1B8B28BB283C308E00CC208B105F
:100020000900820750344934433420344234723456
:10003000613469346E346634753463346B3400343F
:1000400082072A2908002C293E2923293E291C2918
:100050002E298316F13086000F3085008312860129
:10006000031132308D004221FE204A2190011008F8
:1000700011200038031943288E00CC20900A1F302D
:100080008D00422137280F1790018901FF308D0024
:100090004221FF308D004221FE200310100C890008
:1000A000831608148312101C880E08080F390F3CA1
:1000B00003196028080807398E00BC20900A4D28D3
:1000C000FF308D004221FF308D004221FE20900143
:1000D00089010B168B170F1F6E286B280F138F12B9
:1000E00090018F011930840089010310100C8900E0
:1000F0008316081483120808101C080E0F398F1A73
:1001000086282020900A0F1B6B287528053C0319B0
:100110008F12900A75288E000310100C8900831628
:1001200008148312101899280E0E0806F039880654
:100130009D280E0808060F398806831608158B13AC
:1001400055308900AA30890088148B17081483124F
:100150000808101C080E07398E00BC20900A1008F1
:10016000103C1F39031916211008203C1F39031DAC
:100170000900FE20090009000E080E19C328033EDD
:1001800028388E00CA283C380E18603A8E005F3C32
:1001900003190E11CC200800E3200615F420EE20F0
:1001A000E3200611F42002308D004221E3200615E1
:1001B000F420EE20E3200611F42002308D004221CD
:1001C000EE20EE20080004308C008E0D061103187E
:1001D0000615861586118C0BE528080004308C0066
:1001E0008E0C8C0BF02808008615861106118F1BCB
:1001F0000615861586118614861008008F13333075
:100200008E00CC2030308E00CC2002308E00CC20EE
:1002100028308E00CC200F308E00CC2001308E0094
:10022000CC2006308E00CC208F1708008F13A8300A
:100230008E00CC208F170800840A50300402193039
:100240000318840008008403193004024F30031C93
:1002500084000800800A08008003080000080319D1
:100260003C2904088E000F080739113E840010084D
:1002700080008F0A8F1108008F16080000088E007A
:10028000CC200800C8308C0045298C0B44298D0BEC
:100290004329080009308C004D298C0B4C290000A3
:0402A000080008004A
:02400E00F23F7F
:0A4200000200750046003100F000D6
:00000001FF
