:020000040000FA
:020000002028B6
:040002000034003492
:080008008B1C0C288B1005086D
:100010000739101B7528B3283C308E00B4208B1094
:100020000900820750344934433420344234723456
:10003000613469346E346634753463346B3400343F
:100040008316013086000F3085008312860103116C
:1000500032308D000421E6200C219101110811207D
:10006000003803193A288E00B420910A1F308D0001
:1000700004212E28101791018901FF308D000421E1
:10008000FF308D000421E6200310110C8900831637
:10009000081483120808111C080E07398E000E0878
:1000A0000E195628033E28388E005D283C380E185D
:1000B000603A8E005F3C03190E11B420910A1108BA
:1000C0000F3C031D4428FF308D000421FF308D00BC
:1000D0000421E620910189010B168B1700006E2880
:1000E000101391018F0189016E288E000310110CED
:1000F0008900831608148312111883280E0E08062F
:10010000F039880687280E0808060F3988068316F6
:10011000081555308900AA30890088148312831687
:10012000081483120808111C080E07398E000E08E7
:100130000E199E28033E28388E00A5283C380E183C
:10014000603A8E005F3C03190E11B420910A110829
:10015000103C1F390319FE201108203C1F39031DD4
:100160000900E62009000900CB200615DC20D62076
:10017000CB200611DC2002308D000421CB20061597
:10018000DC20D620CB200611DC2002308D0004219B
:10019000D620D620080004308C008E0D06110318DE
:1001A0000615861586118C0BCD28080004308C00AE
:1001B0008E0C8C0BD8280800861586110611901B12
:1001C00006158615861186148610080090133330A4
:1001D0008E00B42030308E00B42002308E00B42067
:1001E00028308E00B4200F308E00B42001308E00F5
:1001F000B42006308E00B420901708009013A83069
:100200008E00B42090170800C8308C0007298C0B92
:1002100006298D0B0529080009308C000F298C0B4D
:080220000E290000080008008F
:02400E00F23F7F
:02420000440078
:00000001FF
