:020000040000FA
:020000002D28A9
:040002000034003492
:080008008B1C0C288B1005086D
:1000100007390F1B9B28CB288515FF308D006921E0
:1000200085110B100F1309008207503449344334F3
:10003000203442347234613469346E346634753439
:1000400063346B34003482073A2965293C296129DD
:10005000332950292C293E2966298316F130860040
:1000600007308500831286018501031132308D002F
:1000700069210E2171219001100814200038031904
:1000800048288E00DC20900A1F308D0069213C2812
:100090000F1790018901FF308D006921FF308D001D
:1000A00069210E210310100C890083160814831295
:1000B000101C880E08080F39083C03196528080829
:1000C00007398E00CC20900A5228FF308D0069211C
:1000D000FF308D0069210E21900189010B168B15CF
:1000E0008B170F1F742871288F12851190010F082C
:1000F000F0398F00193084008001840A0408503CD4
:10010000031D7C281930840089010310100C89001C
:100110008316081483120808101C080E0F398F1A52
:1001200096282320900A0F1B71288528053C031967
:100130008F12900A85288E000310100C89008316F8
:10014000081483121018A9280E0E0806F039880624
:10015000AD280E0808060F398806831608158B137C
:1001600055308900AA30890088148B17081483122F
:100170000808101C080E07398E00CC20900A1008C1
:10018000103C1F39031926211008203C1F39031D7C
:1001900009000E21090009000E080E19D328033E9C
:1001A00028388E00DA283C380E18603A8E005F3C02
:1001B00003190E11DC200800F32006150421FE208F
:1001C000F3200611042102308D006921F320061569
:1001D0000421FE20F3200611042102308D00692144
:1001E000FE20FE20080004308C008E0D061103183E
:1001F0000615861586118C0BF528080004308C0036
:100200008E0C8C0B002908008615861106118F1B99
:100210000615861586118614861008008F13333054
:100220008E00DC2030308E00DC2002308E00DC209E
:1002300028308E00DC200F308E00DC2001308E0054
:10024000DC2006308E00DC208F1708008F13A830CA
:100250008E00DC208F170800840A50300402193009
:100260000318840008008403193004024F30031C73
:1002700084000800800A08008003080000080319B1
:100280004E2904088E000F080739113E840010081B
:1002900080008F0A8F110E08840008008F16080056
:1002A000000803195E2904088E000F080739103E64
:1002B0008400000890000E08840008008F038F114E
:1002C000080000088E00DC20080008000F178515C4
:1002D0000800C8308C006C298C0B6B298D0B6A29A7
:1002E000080009308C0074298C0B73290000080069
:0202F000080004
:02400E00F23F7F
:1042000000000000000000007600000000007600C2
:1042100000006000000060000000600044004400F6
:104220002500600060006200660007004500420053
:104230005600630062002200300000000000000011
:104240003300000003006600340023004300000038
:10425000030022002200220032002200220022005D
:0A42600023006600030060008300E5
:00000001FF
