:020000040000FA
:020000004A288C
:040002000034003492
:080008008B1E2328CD3081007E
:100010008B128B1C11288B10050807390F1BC42865
:10002000F4280B1C090006080B10061E1D280F13D0
:10003000851D090085110F170900861A0F1E09007A
:100040000F1F0F120900011D090001118B16090075
:10005000820750344934433420344234723461349A
:1000600069346E346634753463346B34003482071B
:100070007F29AA298129A6297829952971298329E7
:10008000DB298207203404341034083480340134EE
:1000900040340234831631308600073085008312E5
:1000A000860185010311D7306200061AED21323036
:1000B0008D00DE215321E621900110082820003810
:1000C000031969288E002121900A1F308D00DE213E
:1000D0005D28FF308D00DE21FF308D00DE2185118F
:1000E0009001890153210310100C89008316081414
:1000F0008312101C880E080888198E2807398E0074
:100100001121900A1008103C1F3903196B211008A7
:10011000203C1F39031D7328532173280F178901B1
:100120000B168B158B170F1B93280830C4209B28A8
:10013000851D6F28982853218F120F120B129001E2
:100140000F08F0398F00193084008001840A0408F8
:10015000503C031DA5281930840089010310100CA0
:1001600089008316081483120808101C080E0F3922
:100170008F1ABF283720900A0F1B9828AE28053CFD
:1001800003198F12900AAE288E000310100C8900FC
:100190008316081483121018D2280E0E0806F039A0
:1001A0008806D6280E0808060F3988068316081513
:1001B0008B1355308900AA30890088148B170814D6
:1001C00083120808101C080E07398E001121900AAE
:1001D0001008103C1F3903196B211008203C1F39EF
:1001E000031D09005321090041208006000E0F392C
:1001F000063E8318073E2A3E8E0021218F130430CD
:100200008E0021218F1700080F39063E8318073E04
:100210002A3E8E0021218F1306308E0021218F1758
:1002200009000E080E191829033E28388E001F29D0
:100230003C380E18603A8E005F3C03190E112121E4
:10024000080038210615492143213821061149218A
:1002500002308D00DE213821061549214321382145
:100260000611492102308D00DE214321432108007F
:1002700004308C008E0D06110318061586158611A4
:100280008C0B3A29080004308C008E0C8C0B45290D
:1002900008008615861106118F1B06158615861116
:1002A0008614861008008F1333308E0021213030E1
:1002B0008E00212102308E00212128308E00212144
:1002C0000F308E00212101308E00212106308E005A
:1002D00021218F1708008F13A8308E0021218F173E
:1002E0000800840A50300402193003188400080002
:1002F0008403193004024F30031C84000800800A74
:1003000008008003080000080319932904088E00E0
:100310000F080739113E8400100880008F0A8F11E2
:100320000E08840008008F16080000080319A3298E
:1003300004088E000F080739103E84000008900062
:100340000E08840008008F038F11080000088E003B
:10035000212108000B1680018F130C308E00212103
:100360008F1730308E0021218F1304308E00212111
:100370008F1730308E0021218F1306308E002121FF
:100380008F170F160F1AC22920308E0021218F13CC
:1003900004308E0021218F1720308E0021218F13F1
:1003A00006308E0021218F170B128F130F308E0015
:1003B00021218F1708000F1785150800C8308C0001
:1003C000E1298C0BE0298D0BDF29080009308C0016
:1003D000E9298C0BE82900000800900108308515F8
:0C03E000C420FF308D00DE2185110800D4
:02400E00F23F7F
:1042000000000000000000007600000000007600C2
:1042100000006000000060000000600044004400F6
:104220002500600060006200660007004500420053
:104230005600630062002200300000000000000011
:104240003300000003006600340023004300000038
:10425000030022002200220032002200220022005D
:08426000230066000300830047
:00000001FF
